{
  "_format": "hh-sol-artifact-1",
  "contractName": "NFT",
  "sourceName": "contracts/NFT.sol",
  "abi": [
    {
      "inputs": [
        {
          "internalType": "address",
          "name": "marketplaceAddress",
          "type": "address"
        }
      ],
      "stateMutability": "nonpayable",
      "type": "constructor"
    },
    {
      "anonymous": false,
      "inputs": [
        {
          "indexed": true,
          "internalType": "address",
          "name": "owner",
          "type": "address"
        },
        {
          "indexed": true,
          "internalType": "address",
          "name": "approved",
          "type": "address"
        },
        {
          "indexed": true,
          "internalType": "uint256",
          "name": "tokenId",
          "type": "uint256"
        }
      ],
      "name": "Approval",
      "type": "event"
    },
    {
      "anonymous": false,
      "inputs": [
        {
          "indexed": true,
          "internalType": "address",
          "name": "owner",
          "type": "address"
        },
        {
          "indexed": true,
          "internalType": "address",
          "name": "operator",
          "type": "address"
        },
        {
          "indexed": false,
          "internalType": "bool",
          "name": "approved",
          "type": "bool"
        }
      ],
      "name": "ApprovalForAll",
      "type": "event"
    },
    {
      "anonymous": false,
      "inputs": [
        {
          "indexed": true,
          "internalType": "address",
          "name": "from",
          "type": "address"
        },
        {
          "indexed": true,
          "internalType": "address",
          "name": "to",
          "type": "address"
        },
        {
          "indexed": true,
          "internalType": "uint256",
          "name": "tokenId",
          "type": "uint256"
        }
      ],
      "name": "Transfer",
      "type": "event"
    },
    {
      "inputs": [
        {
          "internalType": "address",
          "name": "to",
          "type": "address"
        },
        {
          "internalType": "uint256",
          "name": "tokenId",
          "type": "uint256"
        }
      ],
      "name": "approve",
      "outputs": [],
      "stateMutability": "nonpayable",
      "type": "function"
    },
    {
      "inputs": [
        {
          "internalType": "address",
          "name": "owner",
          "type": "address"
        }
      ],
      "name": "balanceOf",
      "outputs": [
        {
          "internalType": "uint256",
          "name": "",
          "type": "uint256"
        }
      ],
      "stateMutability": "view",
      "type": "function"
    },
    {
      "inputs": [
        {
          "internalType": "bytes32",
          "name": "c__0x0907ce38",
          "type": "bytes32"
        }
      ],
      "name": "c_0x0907ce38",
      "outputs": [],
      "stateMutability": "pure",
      "type": "function"
    },
    {
      "inputs": [],
      "name": "contractAddress",
      "outputs": [
        {
          "internalType": "address",
          "name": "",
          "type": "address"
        }
      ],
      "stateMutability": "view",
      "type": "function"
    },
    {
      "inputs": [
        {
          "internalType": "string",
          "name": "tokenURI",
          "type": "string"
        }
      ],
      "name": "createToken",
      "outputs": [
        {
          "internalType": "uint256",
          "name": "",
          "type": "uint256"
        }
      ],
      "stateMutability": "nonpayable",
      "type": "function"
    },
    {
      "inputs": [
        {
          "internalType": "uint256",
          "name": "tokenId",
          "type": "uint256"
        }
      ],
      "name": "getApproved",
      "outputs": [
        {
          "internalType": "address",
          "name": "",
          "type": "address"
        }
      ],
      "stateMutability": "view",
      "type": "function"
    },
    {
      "inputs": [
        {
          "internalType": "address",
          "name": "owner",
          "type": "address"
        },
        {
          "internalType": "address",
          "name": "operator",
          "type": "address"
        }
      ],
      "name": "isApprovedForAll",
      "outputs": [
        {
          "internalType": "bool",
          "name": "",
          "type": "bool"
        }
      ],
      "stateMutability": "view",
      "type": "function"
    },
    {
      "inputs": [],
      "name": "name",
      "outputs": [
        {
          "internalType": "string",
          "name": "",
          "type": "string"
        }
      ],
      "stateMutability": "view",
      "type": "function"
    },
    {
      "inputs": [
        {
          "internalType": "uint256",
          "name": "tokenId",
          "type": "uint256"
        }
      ],
      "name": "ownerOf",
      "outputs": [
        {
          "internalType": "address",
          "name": "",
          "type": "address"
        }
      ],
      "stateMutability": "view",
      "type": "function"
    },
    {
      "inputs": [
        {
          "internalType": "address",
          "name": "from",
          "type": "address"
        },
        {
          "internalType": "address",
          "name": "to",
          "type": "address"
        },
        {
          "internalType": "uint256",
          "name": "tokenId",
          "type": "uint256"
        }
      ],
      "name": "safeTransferFrom",
      "outputs": [],
      "stateMutability": "nonpayable",
      "type": "function"
    },
    {
      "inputs": [
        {
          "internalType": "address",
          "name": "from",
          "type": "address"
        },
        {
          "internalType": "address",
          "name": "to",
          "type": "address"
        },
        {
          "internalType": "uint256",
          "name": "tokenId",
          "type": "uint256"
        },
        {
          "internalType": "bytes",
          "name": "_data",
          "type": "bytes"
        }
      ],
      "name": "safeTransferFrom",
      "outputs": [],
      "stateMutability": "nonpayable",
      "type": "function"
    },
    {
      "inputs": [
        {
          "internalType": "address",
          "name": "operator",
          "type": "address"
        },
        {
          "internalType": "bool",
          "name": "approved",
          "type": "bool"
        }
      ],
      "name": "setApprovalForAll",
      "outputs": [],
      "stateMutability": "nonpayable",
      "type": "function"
    },
    {
      "inputs": [
        {
          "internalType": "bytes4",
          "name": "interfaceId",
          "type": "bytes4"
        }
      ],
      "name": "supportsInterface",
      "outputs": [
        {
          "internalType": "bool",
          "name": "",
          "type": "bool"
        }
      ],
      "stateMutability": "view",
      "type": "function"
    },
    {
      "inputs": [],
      "name": "symbol",
      "outputs": [
        {
          "internalType": "string",
          "name": "",
          "type": "string"
        }
      ],
      "stateMutability": "view",
      "type": "function"
    },
    {
      "inputs": [
        {
          "internalType": "uint256",
          "name": "tokenId",
          "type": "uint256"
        }
      ],
      "name": "tokenURI",
      "outputs": [
        {
          "internalType": "string",
          "name": "",
          "type": "string"
        }
      ],
      "stateMutability": "view",
      "type": "function"
    },
    {
      "inputs": [
        {
          "internalType": "address",
          "name": "from",
          "type": "address"
        },
        {
          "internalType": "address",
          "name": "to",
          "type": "address"
        },
        {
          "internalType": "uint256",
          "name": "tokenId",
          "type": "uint256"
        }
      ],
      "name": "transferFrom",
      "outputs": [],
      "stateMutability": "nonpayable",
      "type": "function"
    }
  ],
  "bytecode": "0x60806040523480156200001157600080fd5b506040516200320d3803806200320d833981810160405281019062000037919062000285565b6040518060400160405280600981526020017f4d657461766572736500000000000000000000000000000000000000000000008152506040518060400160405280600481526020017f4d455454000000000000000000000000000000000000000000000000000000008152508160009080519060200190620000bb929190620001be565b508060019080519060200190620000d4929190620001be565b5050506200010b7f1b300cc13e96f540912913314721a59ea70831826c41961704e390e412e4eff060001b620001bb60201b60201c565b6200013f7f35acaaaac9c1b83f35c880b68da2881992316626454a0a4e10dd30e0df956fc060001b620001bb60201b60201c565b620001737f8f2667eaf5cd4d33a5606c77ff6aecf77e10c38e32419320c6ab86e4aae2650960001b620001bb60201b60201c565b80600860006101000a81548173ffffffffffffffffffffffffffffffffffffffff021916908373ffffffffffffffffffffffffffffffffffffffff1602179055505062000364565b50565b828054620001cc90620002e5565b90600052602060002090601f016020900481019282620001f057600085556200023c565b82601f106200020b57805160ff19168380011785556200023c565b828001600101855582156200023c579182015b828111156200023b5782518255916020019190600101906200021e565b5b5090506200024b91906200024f565b5090565b5b808211156200026a57600081600090555060010162000250565b5090565b6000815190506200027f816200034a565b92915050565b6000602082840312156200029857600080fd5b6000620002a8848285016200026e565b91505092915050565b6000620002be82620002c5565b9050919050565b600073ffffffffffffffffffffffffffffffffffffffff82169050919050565b60006002820490506001821680620002fe57607f821691505b602082108114156200031557620003146200031b565b5b50919050565b7f4e487b7100000000000000000000000000000000000000000000000000000000600052602260045260246000fd5b6200035581620002b1565b81146200036157600080fd5b50565b612e9980620003746000396000f3fe608060405234801561001057600080fd5b50600436106101005760003560e01c80636352211e11610097578063b88d4fde11610066578063b88d4fde146102bd578063c87b56dd146102d9578063e985e9c514610309578063f6b4dfb41461033957610100565b80636352211e1461022357806370a082311461025357806395d89b4114610283578063a22cb465146102a157610100565b806323b872dd116100d357806323b872dd1461019f5780633bc7333d146101bb57806342842e0e146101d757806345576f94146101f357610100565b806301ffc9a71461010557806306fdde0314610135578063081812fc14610153578063095ea7b314610183575b600080fd5b61011f600480360381019061011a9190611ee4565b610357565b60405161012c919061232b565b60405180910390f35b61013d610439565b60405161014a9190612346565b60405180910390f35b61016d60048036038101906101689190611f77565b6104cb565b60405161017a91906122c4565b60405180910390f35b61019d60048036038101906101989190611e7f565b610550565b005b6101b960048036038101906101b49190611d79565b610668565b005b6101d560048036038101906101d09190611ebb565b6106c8565b005b6101f160048036038101906101ec9190611d79565b6106cb565b005b61020d60048036038101906102089190611f36565b6106eb565b60405161021a9190612568565b60405180910390f35b61023d60048036038101906102389190611f77565b61098b565b60405161024a91906122c4565b60405180910390f35b61026d60048036038101906102689190611d14565b610a3d565b60405161027a9190612568565b60405180910390f35b61028b610af5565b6040516102989190612346565b60405180910390f35b6102bb60048036038101906102b69190611e43565b610b87565b005b6102d760048036038101906102d29190611dc8565b610d08565b005b6102f360048036038101906102ee9190611f77565b610d6a565b6040516103009190612346565b60405180910390f35b610323600480360381019061031e9190611d3d565b610ebc565b604051610330919061232b565b60405180910390f35b610341610f50565b60405161034e91906122c4565b60405180910390f35b60007f80ac58cd000000000000000000000000000000000000000000000000000000007bffffffffffffffffffffffffffffffffffffffffffffffffffffffff1916827bffffffffffffffffffffffffffffffffffffffffffffffffffffffff1916148061042257507f5b5e139f000000000000000000000000000000000000000000000000000000007bffffffffffffffffffffffffffffffffffffffffffffffffffffffff1916827bffffffffffffffffffffffffffffffffffffffffffffffffffffffff1916145b80610432575061043182610f76565b5b9050919050565b606060008054610448906127c8565b80601f0160208091040260200160405190810160405280929190818152602001828054610474906127c8565b80156104c15780601f10610496576101008083540402835291602001916104c1565b820191906000526020600020905b8154815290600101906020018083116104a457829003601f168201915b5050505050905090565b60006104d682610fe0565b610515576040517f08c379a000000000000000000000000000000000000000000000000000000000815260040161050c906124c8565b60405180910390fd5b6004600083815260200190815260200160002060009054906101000a900473ffffffffffffffffffffffffffffffffffffffff169050919050565b600061055b8261098b565b90508073ffffffffffffffffffffffffffffffffffffffff168373ffffffffffffffffffffffffffffffffffffffff1614156105cc576040517f08c379a00000000000000000000000000000000000000000000000000000000081526004016105c390612528565b60405180910390fd5b8073ffffffffffffffffffffffffffffffffffffffff166105eb61104c565b73ffffffffffffffffffffffffffffffffffffffff16148061061a57506106198161061461104c565b610ebc565b5b610659576040517f08c379a000000000000000000000000000000000000000000000000000000000815260040161065090612408565b60405180910390fd5b6106638383611054565b505050565b61067961067361104c565b8261110d565b6106b8576040517f08c379a00000000000000000000000000000000000000000000000000000000081526004016106af90612548565b60405180910390fd5b6106c38383836111eb565b505050565b50565b6106e683838360405180602001604052806000815250610d08565b505050565b60006107197fd5bc7b26379196d839e23ecbf4c7d61e1e60d260b3b2e53f9ace1f09d3d1e6a160001b6106c8565b6107457f873357326f15786ed922ee833617861a7b9743fadfa608bcb6fb3ae1f5315e6d60001b6106c8565b6107717f91f9e5ff75419d9abd2d4c47db81f32fee04fe025c6c0bd39b5210a11b15755d60001b6106c8565b61077b6007611447565b6107a77fb784ef00cc8ce9497b66e203a7aff539236c6253bdd23971685cb1f17dcbcd3c60001b6106c8565b6107d37ffb185df5192a90b3ab33dd2197af5f465e0464d6155a20a1de996f2eed43389b60001b6106c8565b60006107df600761145d565b905061080d7f7268e56df2ead322cb8c2071882cebbc57f987d9674c645748f7acad0beb03d060001b6106c8565b6108397f9130a6deed3ff2b96f4efcf400b0510ea5320755ec04df8861f5b199343ae9e260001b6106c8565b610843338261146b565b61086f7f2bd956747a7127688d7a82963284d837850aff1e2ec6ab8d945c3d9ebf35132460001b6106c8565b61089b7f3fa3478524767f8623482b90275f9170705e53aa94b706698f88b5c1e27fe44460001b6106c8565b6108a58184611639565b6108d17f64fd15aa5beadfa05b46445bcca37435d6f36252068ccc18a96871cbc396e97d60001b6106c8565b6108fd7f7a850010684f613fd83c292befb6249d897594455df6208c4324b476906c078e60001b6106c8565b61092a600860009054906101000a900473ffffffffffffffffffffffffffffffffffffffff166001610b87565b6109567fa38347be0c9d6f6681398969f9ddd58f0761dcc4ba4cce0a77a2204da0d72e2760001b6106c8565b6109827feeb9092bfef995990459c1d5e2f4cebc6877b169f0d225d68d189bc88f2f758f60001b6106c8565b80915050919050565b6000806002600084815260200190815260200160002060009054906101000a900473ffffffffffffffffffffffffffffffffffffffff169050600073ffffffffffffffffffffffffffffffffffffffff168173ffffffffffffffffffffffffffffffffffffffff161415610a34576040517f08c379a0000000000000000000000000000000000000000000000000000000008152600401610a2b90612448565b60405180910390fd5b80915050919050565b60008073ffffffffffffffffffffffffffffffffffffffff168273ffffffffffffffffffffffffffffffffffffffff161415610aae576040517f08c379a0000000000000000000000000000000000000000000000000000000008152600401610aa590612428565b60405180910390fd5b600360008373ffffffffffffffffffffffffffffffffffffffff1673ffffffffffffffffffffffffffffffffffffffff168152602001908152602001600020549050919050565b606060018054610b04906127c8565b80601f0160208091040260200160405190810160405280929190818152602001828054610b30906127c8565b8015610b7d5780601f10610b5257610100808354040283529160200191610b7d565b820191906000526020600020905b815481529060010190602001808311610b6057829003601f168201915b5050505050905090565b610b8f61104c565b73ffffffffffffffffffffffffffffffffffffffff168273ffffffffffffffffffffffffffffffffffffffff161415610bfd576040517f08c379a0000000000000000000000000000000000000000000000000000000008152600401610bf4906123c8565b60405180910390fd5b8060056000610c0a61104c565b73ffffffffffffffffffffffffffffffffffffffff1673ffffffffffffffffffffffffffffffffffffffff16815260200190815260200160002060008473ffffffffffffffffffffffffffffffffffffffff1673ffffffffffffffffffffffffffffffffffffffff16815260200190815260200160002060006101000a81548160ff0219169083151502179055508173ffffffffffffffffffffffffffffffffffffffff16610cb761104c565b73ffffffffffffffffffffffffffffffffffffffff167f17307eab39ab6107e8899845ad3d59bd9653f200f220920489ca2b5937696c3183604051610cfc919061232b565b60405180910390a35050565b610d19610d1361104c565b8361110d565b610d58576040517f08c379a0000000000000000000000000000000000000000000000000000000008152600401610d4f90612548565b60405180910390fd5b610d64848484846116ad565b50505050565b6060610d7582610fe0565b610db4576040517f08c379a0000000000000000000000000000000000000000000000000000000008152600401610dab906124a8565b60405180910390fd5b6000600660008481526020019081526020016000208054610dd4906127c8565b80601f0160208091040260200160405190810160405280929190818152602001828054610e00906127c8565b8015610e4d5780601f10610e2257610100808354040283529160200191610e4d565b820191906000526020600020905b815481529060010190602001808311610e3057829003601f168201915b505050505090506000610e5e611709565b9050600081511415610e74578192505050610eb7565b600082511115610ea9578082604051602001610e919291906122a0565b60405160208183030381529060405292505050610eb7565b610eb284611720565b925050505b919050565b6000600560008473ffffffffffffffffffffffffffffffffffffffff1673ffffffffffffffffffffffffffffffffffffffff16815260200190815260200160002060008373ffffffffffffffffffffffffffffffffffffffff1673ffffffffffffffffffffffffffffffffffffffff16815260200190815260200160002060009054906101000a900460ff16905092915050565b600860009054906101000a900473ffffffffffffffffffffffffffffffffffffffff1681565b60007f01ffc9a7000000000000000000000000000000000000000000000000000000007bffffffffffffffffffffffffffffffffffffffffffffffffffffffff1916827bffffffffffffffffffffffffffffffffffffffffffffffffffffffff1916149050919050565b60008073ffffffffffffffffffffffffffffffffffffffff166002600084815260200190815260200160002060009054906101000a900473ffffffffffffffffffffffffffffffffffffffff1673ffffffffffffffffffffffffffffffffffffffff1614159050919050565b600033905090565b816004600083815260200190815260200160002060006101000a81548173ffffffffffffffffffffffffffffffffffffffff021916908373ffffffffffffffffffffffffffffffffffffffff160217905550808273ffffffffffffffffffffffffffffffffffffffff166110c78361098b565b73ffffffffffffffffffffffffffffffffffffffff167f8c5be1e5ebec7d5bd14f71427d1e84f3dd0314c0f7b2291e5b200ac8c7c3b92560405160405180910390a45050565b600061111882610fe0565b611157576040517f08c379a000000000000000000000000000000000000000000000000000000000815260040161114e906123e8565b60405180910390fd5b60006111628361098b565b90508073ffffffffffffffffffffffffffffffffffffffff168473ffffffffffffffffffffffffffffffffffffffff1614806111d157508373ffffffffffffffffffffffffffffffffffffffff166111b9846104cb565b73ffffffffffffffffffffffffffffffffffffffff16145b806111e257506111e18185610ebc565b5b91505092915050565b8273ffffffffffffffffffffffffffffffffffffffff1661120b8261098b565b73ffffffffffffffffffffffffffffffffffffffff1614611261576040517f08c379a0000000000000000000000000000000000000000000000000000000008152600401611258906124e8565b60405180910390fd5b600073ffffffffffffffffffffffffffffffffffffffff168273ffffffffffffffffffffffffffffffffffffffff1614156112d1576040517f08c379a00000000000000000000000000000000000000000000000000000000081526004016112c8906123a8565b60405180910390fd5b6112dc8383836117c7565b6112e7600082611054565b6001600360008573ffffffffffffffffffffffffffffffffffffffff1673ffffffffffffffffffffffffffffffffffffffff168152602001908152602001600020600082825461133791906126d4565b925050819055506001600360008473ffffffffffffffffffffffffffffffffffffffff1673ffffffffffffffffffffffffffffffffffffffff168152602001908152602001600020600082825461138e919061264d565b92505081905550816002600083815260200190815260200160002060006101000a81548173ffffffffffffffffffffffffffffffffffffffff021916908373ffffffffffffffffffffffffffffffffffffffff160217905550808273ffffffffffffffffffffffffffffffffffffffff168473ffffffffffffffffffffffffffffffffffffffff167fddf252ad1be2c89b69c2b068fc378daa952ba7f163c4a11628f55a4df523b3ef60405160405180910390a4505050565b6001816000016000828254019250508190555050565b600081600001549050919050565b600073ffffffffffffffffffffffffffffffffffffffff168273ffffffffffffffffffffffffffffffffffffffff1614156114db576040517f08c379a00000000000000000000000000000000000000000000000000000000081526004016114d290612488565b60405180910390fd5b6114e481610fe0565b15611524576040517f08c379a000000000000000000000000000000000000000000000000000000000815260040161151b90612388565b60405180910390fd5b611530600083836117c7565b6001600360008473ffffffffffffffffffffffffffffffffffffffff1673ffffffffffffffffffffffffffffffffffffffff1681526020019081526020016000206000828254611580919061264d565b92505081905550816002600083815260200190815260200160002060006101000a81548173ffffffffffffffffffffffffffffffffffffffff021916908373ffffffffffffffffffffffffffffffffffffffff160217905550808273ffffffffffffffffffffffffffffffffffffffff16600073ffffffffffffffffffffffffffffffffffffffff167fddf252ad1be2c89b69c2b068fc378daa952ba7f163c4a11628f55a4df523b3ef60405160405180910390a45050565b61164282610fe0565b611681576040517f08c379a000000000000000000000000000000000000000000000000000000000815260040161167890612468565b60405180910390fd5b806006600084815260200190815260200160002090805190602001906116a8929190611b23565b505050565b6116b88484846111eb565b6116c4848484846117cc565b611703576040517f08c379a00000000000000000000000000000000000000000000000000000000081526004016116fa90612368565b60405180910390fd5b50505050565b606060405180602001604052806000815250905090565b606061172b82610fe0565b61176a576040517f08c379a000000000000000000000000000000000000000000000000000000000815260040161176190612508565b60405180910390fd5b6000611774611709565b9050600081511161179457604051806020016040528060008152506117bf565b8061179e84611963565b6040516020016117af9291906122a0565b6040516020818303038152906040525b915050919050565b505050565b60006117ed8473ffffffffffffffffffffffffffffffffffffffff16611b10565b15611956578373ffffffffffffffffffffffffffffffffffffffff1663150b7a0261181661104c565b8786866040518563ffffffff1660e01b815260040161183894939291906122df565b602060405180830381600087803b15801561185257600080fd5b505af192505050801561188357506040513d601f19601f820116820180604052508101906118809190611f0d565b60015b611906573d80600081146118b3576040519150601f19603f3d011682016040523d82523d6000602084013e6118b8565b606091505b506000815114156118fe576040517f08c379a00000000000000000000000000000000000000000000000000000000081526004016118f590612368565b60405180910390fd5b805181602001fd5b63150b7a0260e01b7bffffffffffffffffffffffffffffffffffffffffffffffffffffffff1916817bffffffffffffffffffffffffffffffffffffffffffffffffffffffff19161491505061195b565b600190505b949350505050565b606060008214156119ab576040518060400160405280600181526020017f30000000000000000000000000000000000000000000000000000000000000008152509050611b0b565b600082905060005b600082146119dd5780806119c69061282b565b915050600a826119d691906126a3565b91506119b3565b60008167ffffffffffffffff811115611a1f577f4e487b7100000000000000000000000000000000000000000000000000000000600052604160045260246000fd5b6040519080825280601f01601f191660200182016040528015611a515781602001600182028036833780820191505090505b5090505b60008514611b0457600182611a6a91906126d4565b9150600a85611a799190612874565b6030611a85919061264d565b60f81b818381518110611ac1577f4e487b7100000000000000000000000000000000000000000000000000000000600052603260045260246000fd5b60200101907effffffffffffffffffffffffffffffffffffffffffffffffffffffffffffff1916908160001a905350600a85611afd91906126a3565b9450611a55565b8093505050505b919050565b600080823b905060008111915050919050565b828054611b2f906127c8565b90600052602060002090601f016020900481019282611b515760008555611b98565b82601f10611b6a57805160ff1916838001178555611b98565b82800160010185558215611b98579182015b82811115611b97578251825591602001919060010190611b7c565b5b509050611ba59190611ba9565b5090565b5b80821115611bc2576000816000905550600101611baa565b5090565b6000611bd9611bd4846125a8565b612583565b905082815260208101848484011115611bf157600080fd5b611bfc848285612786565b509392505050565b6000611c17611c12846125d9565b612583565b905082815260208101848484011115611c2f57600080fd5b611c3a848285612786565b509392505050565b600081359050611c5181612df0565b92915050565b600081359050611c6681612e07565b92915050565b600081359050611c7b81612e1e565b92915050565b600081359050611c9081612e35565b92915050565b600081519050611ca581612e35565b92915050565b600082601f830112611cbc57600080fd5b8135611ccc848260208601611bc6565b91505092915050565b600082601f830112611ce657600080fd5b8135611cf6848260208601611c04565b91505092915050565b600081359050611d0e81612e4c565b92915050565b600060208284031215611d2657600080fd5b6000611d3484828501611c42565b91505092915050565b60008060408385031215611d5057600080fd5b6000611d5e85828601611c42565b9250506020611d6f85828601611c42565b9150509250929050565b600080600060608486031215611d8e57600080fd5b6000611d9c86828701611c42565b9350506020611dad86828701611c42565b9250506040611dbe86828701611cff565b9150509250925092565b60008060008060808587031215611dde57600080fd5b6000611dec87828801611c42565b9450506020611dfd87828801611c42565b9350506040611e0e87828801611cff565b925050606085013567ffffffffffffffff811115611e2b57600080fd5b611e3787828801611cab565b91505092959194509250565b60008060408385031215611e5657600080fd5b6000611e6485828601611c42565b9250506020611e7585828601611c57565b9150509250929050565b60008060408385031215611e9257600080fd5b6000611ea085828601611c42565b9250506020611eb185828601611cff565b9150509250929050565b600060208284031215611ecd57600080fd5b6000611edb84828501611c6c565b91505092915050565b600060208284031215611ef657600080fd5b6000611f0484828501611c81565b91505092915050565b600060208284031215611f1f57600080fd5b6000611f2d84828501611c96565b91505092915050565b600060208284031215611f4857600080fd5b600082013567ffffffffffffffff811115611f6257600080fd5b611f6e84828501611cd5565b91505092915050565b600060208284031215611f8957600080fd5b6000611f9784828501611cff565b91505092915050565b611fa981612708565b82525050565b611fb88161271a565b82525050565b6000611fc98261260a565b611fd38185612620565b9350611fe3818560208601612795565b611fec81612961565b840191505092915050565b600061200282612615565b61200c8185612631565b935061201c818560208601612795565b61202581612961565b840191505092915050565b600061203b82612615565b6120458185612642565b9350612055818560208601612795565b80840191505092915050565b600061206e603283612631565b915061207982612972565b604082019050919050565b6000612091601c83612631565b915061209c826129c1565b602082019050919050565b60006120b4602483612631565b91506120bf826129ea565b604082019050919050565b60006120d7601983612631565b91506120e282612a39565b602082019050919050565b60006120fa602c83612631565b915061210582612a62565b604082019050919050565b600061211d603883612631565b915061212882612ab1565b604082019050919050565b6000612140602a83612631565b915061214b82612b00565b604082019050919050565b6000612163602983612631565b915061216e82612b4f565b604082019050919050565b6000612186602e83612631565b915061219182612b9e565b604082019050919050565b60006121a9602083612631565b91506121b482612bed565b602082019050919050565b60006121cc603183612631565b91506121d782612c16565b604082019050919050565b60006121ef602c83612631565b91506121fa82612c65565b604082019050919050565b6000612212602983612631565b915061221d82612cb4565b604082019050919050565b6000612235602f83612631565b915061224082612d03565b604082019050919050565b6000612258602183612631565b915061226382612d52565b604082019050919050565b600061227b603183612631565b915061228682612da1565b604082019050919050565b61229a8161277c565b82525050565b60006122ac8285612030565b91506122b88284612030565b91508190509392505050565b60006020820190506122d96000830184611fa0565b92915050565b60006080820190506122f46000830187611fa0565b6123016020830186611fa0565b61230e6040830185612291565b81810360608301526123208184611fbe565b905095945050505050565b60006020820190506123406000830184611faf565b92915050565b600060208201905081810360008301526123608184611ff7565b905092915050565b6000602082019050818103600083015261238181612061565b9050919050565b600060208201905081810360008301526123a181612084565b9050919050565b600060208201905081810360008301526123c1816120a7565b9050919050565b600060208201905081810360008301526123e1816120ca565b9050919050565b60006020820190508181036000830152612401816120ed565b9050919050565b6000602082019050818103600083015261242181612110565b9050919050565b6000602082019050818103600083015261244181612133565b9050919050565b6000602082019050818103600083015261246181612156565b9050919050565b6000602082019050818103600083015261248181612179565b9050919050565b600060208201905081810360008301526124a18161219c565b9050919050565b600060208201905081810360008301526124c1816121bf565b9050919050565b600060208201905081810360008301526124e1816121e2565b9050919050565b6000602082019050818103600083015261250181612205565b9050919050565b6000602082019050818103600083015261252181612228565b9050919050565b600060208201905081810360008301526125418161224b565b9050919050565b600060208201905081810360008301526125618161226e565b9050919050565b600060208201905061257d6000830184612291565b92915050565b600061258d61259e565b905061259982826127fa565b919050565b6000604051905090565b600067ffffffffffffffff8211156125c3576125c2612932565b5b6125cc82612961565b9050602081019050919050565b600067ffffffffffffffff8211156125f4576125f3612932565b5b6125fd82612961565b9050602081019050919050565b600081519050919050565b600081519050919050565b600082825260208201905092915050565b600082825260208201905092915050565b600081905092915050565b60006126588261277c565b91506126638361277c565b9250827fffffffffffffffffffffffffffffffffffffffffffffffffffffffffffffffff03821115612698576126976128a5565b5b828201905092915050565b60006126ae8261277c565b91506126b98361277c565b9250826126c9576126c86128d4565b5b828204905092915050565b60006126df8261277c565b91506126ea8361277c565b9250828210156126fd576126fc6128a5565b5b828203905092915050565b60006127138261275c565b9050919050565b60008115159050919050565b6000819050919050565b60007fffffffff0000000000000000000000000000000000000000000000000000000082169050919050565b600073ffffffffffffffffffffffffffffffffffffffff82169050919050565b6000819050919050565b82818337600083830152505050565b60005b838110156127b3578082015181840152602081019050612798565b838111156127c2576000848401525b50505050565b600060028204905060018216806127e057607f821691505b602082108114156127f4576127f3612903565b5b50919050565b61280382612961565b810181811067ffffffffffffffff8211171561282257612821612932565b5b80604052505050565b60006128368261277c565b91507fffffffffffffffffffffffffffffffffffffffffffffffffffffffffffffffff821415612869576128686128a5565b5b600182019050919050565b600061287f8261277c565b915061288a8361277c565b92508261289a576128996128d4565b5b828206905092915050565b7f4e487b7100000000000000000000000000000000000000000000000000000000600052601160045260246000fd5b7f4e487b7100000000000000000000000000000000000000000000000000000000600052601260045260246000fd5b7f4e487b7100000000000000000000000000000000000000000000000000000000600052602260045260246000fd5b7f4e487b7100000000000000000000000000000000000000000000000000000000600052604160045260246000fd5b6000601f19601f8301169050919050565b7f4552433732313a207472616e7366657220746f206e6f6e20455243373231526560008201527f63656976657220696d706c656d656e7465720000000000000000000000000000602082015250565b7f4552433732313a20746f6b656e20616c7265616479206d696e74656400000000600082015250565b7f4552433732313a207472616e7366657220746f20746865207a65726f2061646460008201527f7265737300000000000000000000000000000000000000000000000000000000602082015250565b7f4552433732313a20617070726f766520746f2063616c6c657200000000000000600082015250565b7f4552433732313a206f70657261746f7220717565727920666f72206e6f6e657860008201527f697374656e7420746f6b656e0000000000000000000000000000000000000000602082015250565b7f4552433732313a20617070726f76652063616c6c6572206973206e6f74206f7760008201527f6e6572206e6f7220617070726f76656420666f7220616c6c0000000000000000602082015250565b7f4552433732313a2062616c616e636520717565727920666f7220746865207a6560008201527f726f206164647265737300000000000000000000000000000000000000000000602082015250565b7f4552433732313a206f776e657220717565727920666f72206e6f6e657869737460008201527f656e7420746f6b656e0000000000000000000000000000000000000000000000602082015250565b7f45524337323155524953746f726167653a2055524920736574206f66206e6f6e60008201527f6578697374656e7420746f6b656e000000000000000000000000000000000000602082015250565b7f4552433732313a206d696e7420746f20746865207a65726f2061646472657373600082015250565b7f45524337323155524953746f726167653a2055524920717565727920666f722060008201527f6e6f6e6578697374656e7420746f6b656e000000000000000000000000000000602082015250565b7f4552433732313a20617070726f76656420717565727920666f72206e6f6e657860008201527f697374656e7420746f6b656e0000000000000000000000000000000000000000602082015250565b7f4552433732313a207472616e73666572206f6620746f6b656e2074686174206960008201527f73206e6f74206f776e0000000000000000000000000000000000000000000000602082015250565b7f4552433732314d657461646174613a2055524920717565727920666f72206e6f60008201527f6e6578697374656e7420746f6b656e0000000000000000000000000000000000602082015250565b7f4552433732313a20617070726f76616c20746f2063757272656e74206f776e6560008201527f7200000000000000000000000000000000000000000000000000000000000000602082015250565b7f4552433732313a207472616e736665722063616c6c6572206973206e6f74206f60008201527f776e6572206e6f7220617070726f766564000000000000000000000000000000602082015250565b612df981612708565b8114612e0457600080fd5b50565b612e108161271a565b8114612e1b57600080fd5b50565b612e2781612726565b8114612e3257600080fd5b50565b612e3e81612730565b8114612e4957600080fd5b50565b612e558161277c565b8114612e6057600080fd5b5056fea26469706673582212201103ffb28160b5a131c2a6a9b3c1aa9780cab431808df41d10a2aeb0b960e68764736f6c63430008040033",
  "linkReferences": {},
  "deployedLinkReferences": {}
}