{
  "_format": "hh-sol-artifact-1",
  "contractName": "NFTMarket",
  "sourceName": "contracts/NFTMarket.sol",
  "abi": [
    {
      "inputs": [],
      "stateMutability": "nonpayable",
      "type": "constructor"
    },
    {
      "anonymous": false,
      "inputs": [
        {
          "indexed": true,
          "internalType": "uint256",
          "name": "itemId",
          "type": "uint256"
        },
        {
          "indexed": true,
          "internalType": "address",
          "name": "nftContract",
          "type": "address"
        },
        {
          "indexed": true,
          "internalType": "uint256",
          "name": "tokenId",
          "type": "uint256"
        },
        {
          "indexed": false,
          "internalType": "address",
          "name": "seller",
          "type": "address"
        },
        {
          "indexed": false,
          "internalType": "address",
          "name": "owner",
          "type": "address"
        },
        {
          "indexed": false,
          "internalType": "uint256",
          "name": "price",
          "type": "uint256"
        },
        {
          "indexed": false,
          "internalType": "bool",
          "name": "sold",
          "type": "bool"
        }
      ],
      "name": "MarketItemStatus",
      "type": "event"
    },
    {
      "inputs": [
        {
          "internalType": "bytes32",
          "name": "c__0x8080f54c",
          "type": "bytes32"
        }
      ],
      "name": "c_0x8080f54c",
      "outputs": [],
      "stateMutability": "pure",
      "type": "function"
    },
    {
      "inputs": [
        {
          "internalType": "address",
          "name": "nftContract",
          "type": "address"
        },
        {
          "internalType": "uint256",
          "name": "tokenId",
          "type": "uint256"
        },
        {
          "internalType": "uint256",
          "name": "price",
          "type": "uint256"
        }
      ],
      "name": "createMarketItem",
      "outputs": [],
      "stateMutability": "payable",
      "type": "function"
    },
    {
      "inputs": [
        {
          "internalType": "address",
          "name": "nftContract",
          "type": "address"
        },
        {
          "internalType": "uint256",
          "name": "itemId",
          "type": "uint256"
        }
      ],
      "name": "createMarketSale",
      "outputs": [],
      "stateMutability": "payable",
      "type": "function"
    },
    {
      "inputs": [],
      "name": "fetchItemsCreated",
      "outputs": [
        {
          "components": [
            {
              "internalType": "uint256",
              "name": "itemId",
              "type": "uint256"
            },
            {
              "internalType": "address",
              "name": "nftContract",
              "type": "address"
            },
            {
              "internalType": "uint256",
              "name": "tokenId",
              "type": "uint256"
            },
            {
              "internalType": "address payable",
              "name": "seller",
              "type": "address"
            },
            {
              "internalType": "address payable",
              "name": "owner",
              "type": "address"
            },
            {
              "internalType": "uint256",
              "name": "price",
              "type": "uint256"
            },
            {
              "internalType": "bool",
              "name": "sold",
              "type": "bool"
            }
          ],
          "internalType": "struct NFTMarket.MarketItem[]",
          "name": "",
          "type": "tuple[]"
        }
      ],
      "stateMutability": "view",
      "type": "function"
    },
    {
      "inputs": [],
      "name": "fetchMarketItems",
      "outputs": [
        {
          "components": [
            {
              "internalType": "uint256",
              "name": "itemId",
              "type": "uint256"
            },
            {
              "internalType": "address",
              "name": "nftContract",
              "type": "address"
            },
            {
              "internalType": "uint256",
              "name": "tokenId",
              "type": "uint256"
            },
            {
              "internalType": "address payable",
              "name": "seller",
              "type": "address"
            },
            {
              "internalType": "address payable",
              "name": "owner",
              "type": "address"
            },
            {
              "internalType": "uint256",
              "name": "price",
              "type": "uint256"
            },
            {
              "internalType": "bool",
              "name": "sold",
              "type": "bool"
            }
          ],
          "internalType": "struct NFTMarket.MarketItem[]",
          "name": "",
          "type": "tuple[]"
        }
      ],
      "stateMutability": "view",
      "type": "function"
    },
    {
      "inputs": [],
      "name": "fetchMyNFTs",
      "outputs": [
        {
          "components": [
            {
              "internalType": "uint256",
              "name": "itemId",
              "type": "uint256"
            },
            {
              "internalType": "address",
              "name": "nftContract",
              "type": "address"
            },
            {
              "internalType": "uint256",
              "name": "tokenId",
              "type": "uint256"
            },
            {
              "internalType": "address payable",
              "name": "seller",
              "type": "address"
            },
            {
              "internalType": "address payable",
              "name": "owner",
              "type": "address"
            },
            {
              "internalType": "uint256",
              "name": "price",
              "type": "uint256"
            },
            {
              "internalType": "bool",
              "name": "sold",
              "type": "bool"
            }
          ],
          "internalType": "struct NFTMarket.MarketItem[]",
          "name": "",
          "type": "tuple[]"
        }
      ],
      "stateMutability": "view",
      "type": "function"
    },
    {
      "inputs": [],
      "name": "getListingPrice",
      "outputs": [
        {
          "internalType": "uint256",
          "name": "",
          "type": "uint256"
        }
      ],
      "stateMutability": "view",
      "type": "function"
    },
    {
      "inputs": [],
      "name": "getOwner",
      "outputs": [
        {
          "internalType": "address",
          "name": "",
          "type": "address"
        }
      ],
      "stateMutability": "view",
      "type": "function"
    },
    {
      "inputs": [],
      "name": "getOwnerBalance",
      "outputs": [
        {
          "internalType": "uint256",
          "name": "",
          "type": "uint256"
        }
      ],
      "stateMutability": "view",
      "type": "function"
    }
  ],
  "bytecode": "0x60806040526658d15e176280006004553480156200001c57600080fd5b506001600081905550620000597f16c37ef7520114c6b8b712ccbdd61f020b1b69e82aa776b8242185fe41d1ee1060001b6200010860201b60201c565b6200008d7f7fb79a27de10aec63f57b85b5f29a68d6c9da75e6f27f8f30b02223bfe114e2e60001b6200010860201b60201c565b620000c17f06a17eaf927531af003040d1be6605e2b878220b1138a52c155f7dab2079bc3560001b6200010860201b60201c565b33600360006101000a81548173ffffffffffffffffffffffffffffffffffffffff021916908373ffffffffffffffffffffffffffffffffffffffff1602179055506200010b565b50565b613804806200011b6000396000f3fe6080604052600436106100865760003560e01c8063590791f211610059578063590791f214610128578063893d20e8146101535780638e44ee531461017e578063c23b139e146101a7578063f064c32e146101c357610086565b80630f08efe01461008b57806312e85585146100b6578063202e3740146100e157806358eb2df51461010c575b600080fd5b34801561009757600080fd5b506100a06101ee565b6040516100ad91906133ad565b60405180910390f35b3480156100c257600080fd5b506100cb610956565b6040516100d8919061346f565b60405180910390f35b3480156100ed57600080fd5b506100f66109e4565b60405161010391906133ad565b60405180910390f35b6101266004803603810190610121919061302e565b611335565b005b34801561013457600080fd5b5061013d6119dd565b60405161014a919061346f565b60405180910390f35b34801561015f57600080fd5b50610168611c3a565b60405161017591906132d1565b60405180910390f35b34801561018a57600080fd5b506101a560048036038101906101a0919061307d565b611e80565b005b6101c160048036038101906101bc9190612ff2565b611e83565b005b3480156101cf57600080fd5b506101d86125bd565b6040516101e591906133ad565b60405180910390f35b606061021c7f62ca49e322ce44c002160a090d260e086ad4681255cfb8e1f9d7f25ddd16d24460001b611e80565b6102487f494b496b6ed57f0766b94d48e6ac8772f780213315adc100e2e57f4ec7c38cc960001b611e80565b6102747f1db4aad32190d036161c735045deac867f44817e255980196a6e7410cf6c009260001b611e80565b60006102806001612f0e565b90506102ae7f43b1a704775b8caceb366b4ac2e49d4e60a6a4fc4edc45d4e9e2d9632322022760001b611e80565b6102da7f8671d380ab5a3e4d6a1709a05737959d457faaf4dd049dc31c6e1a52d3c0005f60001b611e80565b60006102e66002612f0e565b6102f06001612f0e565b6102fa919061352a565b90506103287fcadf426dab09deff991004ece3b444ee820b29caf72401034ef8455a3ef3c79c60001b611e80565b6103547ff8442afcab6aabe3f4570502ab6956aa71d20d1c453c1f37e1b684ad3bee42b060001b611e80565b60006103827fa6bf59655357a93c679fde8725efe47dd7c7bea8778967eb59556b9d9eae41aa60001b611e80565b6103ae7fd8d95ae3d0c4e010663c4b5974a8e050e08f2394bdb3b227980fd3acf56dd64a60001b611e80565b60008267ffffffffffffffff8111156103f0577f4e487b7100000000000000000000000000000000000000000000000000000000600052604160045260246000fd5b60405190808252806020026020018201604052801561042957816020015b610416612f32565b81526020019060019003908161040e5790505b5090506104587f59d7229da21f727cbf72cbd20417c2e093a1930913adbd415bb3d6826969864360001b611e80565b6104847f74164157534509f52cf5130a165e11d4023c01f4f5dd250fb37cadc00a80b6a860001b611e80565b60005b848110156108f3576104bb7fe53b8faf46f1ee75f7b72b3aaa5f2901a527216f5ae7b092597cb5a09a9c86f660001b611e80565b6104e77f4908699854c0af0e732bc83c2d80c70036992b882a148fb72a5db0a76ee583fa60001b611e80565b600073ffffffffffffffffffffffffffffffffffffffff166005600060018461051091906134d4565b815260200190815260200160002060040160009054906101000a900473ffffffffffffffffffffffffffffffffffffffff1673ffffffffffffffffffffffffffffffffffffffff1614156108b35761058a7fbee621e816612e3cf3580b26d9d0d4dbfe3b1522eab8be13c792237e958f3ddd60001b611e80565b6105b67f01170867a88d7b8fbf194b3bec7acb66dbf2a7d6beb7c92178e2f0964cdf251060001b611e80565b6105e27ff2df5b2b8192e0b736d0469644179c520cfe2a611e1b8c03c1a2c0437ff4f3ac60001b611e80565b60006001826105f191906134d4565b905061061f7f8f2e57b3bc657bb5f1cefc76a5c1a865774dad321a4855657b093333e2bb35d660001b611e80565b61064b7f79f4c785375b21dd9a8ed774bb10a4271fe75c5fd11c28efe98fb8b2069ecee760001b611e80565b600060056000838152602001908152602001600020905061068e7f1a01431fe3f2fa177d827a70a8fc2a5f23b29ded18f6c49c386b4ca7b969c0d560001b611e80565b6106ba7f572436cd76da264e84b0fb25fbf37e857ff6e29aaea861fe2203711a269d2fa660001b611e80565b806040518060e0016040529081600082015481526020016001820160009054906101000a900473ffffffffffffffffffffffffffffffffffffffff1673ffffffffffffffffffffffffffffffffffffffff1673ffffffffffffffffffffffffffffffffffffffff168152602001600282015481526020016003820160009054906101000a900473ffffffffffffffffffffffffffffffffffffffff1673ffffffffffffffffffffffffffffffffffffffff1673ffffffffffffffffffffffffffffffffffffffff1681526020016004820160009054906101000a900473ffffffffffffffffffffffffffffffffffffffff1673ffffffffffffffffffffffffffffffffffffffff1673ffffffffffffffffffffffffffffffffffffffff168152602001600582015481526020016006820160009054906101000a900460ff16151515158152505084868151811061083a577f4e487b7100000000000000000000000000000000000000000000000000000000600052603260045260246000fd5b60200260200101819052506108717f7fea2a3cdf20593c7c6eee80d3284f9bf2e9ea605560596da545619f56db82fb60001b611e80565b61089d7f8f06e68fdf258431766da619c54ad94bd05eee7ec40b853b037b550a825d730060001b611e80565b6001856108aa91906134d4565b945050506108e0565b6108df7ff0f3a755fca39c223ce17fb216d284fd40c2f460bec1fbf34546f7fb62362dd060001b611e80565b5b80806108eb906135f8565b915050610487565b506109207f9198bb85c71c0f53d5616efe04b867586bc4b6c7e316e27afd24e82bc8ee6f9660001b611e80565b61094c7fbc3ca32cbeff32959adc0bd2d0047ae66f167e2ec5f232b55342ac61f2245ba360001b611e80565b8094505050505090565b60006109847f5809ed53ae30b680c4439e77be3395987ab3d34eba9a042b75d59df82ab8cd7c60001b611e80565b6109b07fc4c7079317a84546857131157d0fb80d1ec527dce60adbbd8ac610a314a6bc7760001b611e80565b6109dc7f817cc720eb7454343cdb73506fb3b0a5c6a65a8aed072eb981298974728bb17760001b611e80565b600454905090565b6060610a127f297a5aeb2a63f57f51655429d19c751938d18e5813d1874434ea7d1075b8137c60001b611e80565b610a3e7f82fdb38fb2c0021f2bd59943f8858723cf66dd7a696ae81d386f7582e97727df60001b611e80565b610a6a7f6ac032089811732643f995f75c6ea59eb45c5b201bc7e91ba9d52a88423d9fae60001b611e80565b6000610a766001612f0e565b9050610aa47f687e7b359744d1a7ef6c83f4625d947f9c872966e5b958887825062b4741fc7d60001b611e80565b610ad07ffc23f7c68b37f89089ddf513ae4b826c88ec26b3e4befb0fc0184c8adcf690bc60001b611e80565b6000610afe7ff38ca570a7b16c3140cfc8174f42b888ff324575f428b72055a35fde1524ee3960001b611e80565b610b2a7f3f2a8cb730b23d0472b4d5160cd3e2da3e47e607afbe107f7688636b4e3d389960001b611e80565b6000610b587fbf525c1e0d15c0e1426c20356b47c2f88ea3ae38998dbc289d737be4bb0ddd4960001b611e80565b610b847fa7a548340839d6113b303706dcecb56900d68ead5a5a8f26838b25ec0e3939f560001b611e80565b60005b83811015610d3557610bbb7f901ecef6b9eacd1ad34d42d3623131a1d3b750dceedd7a3564d810d3c909a64d60001b611e80565b610be77fe1fc045c2c2bb652b92a2d82ee83cd07717b4b28409f1c72f5aadbe50e405d4660001b611e80565b3373ffffffffffffffffffffffffffffffffffffffff1660056000600184610c0f91906134d4565b815260200190815260200160002060040160009054906101000a900473ffffffffffffffffffffffffffffffffffffffff1673ffffffffffffffffffffffffffffffffffffffff161415610cf557610c897f8d1b2c4cf707e4b8b81327fea2c20560cba750fd584fe47aa8cdb3cda2aeb38260001b611e80565b610cb57fbc841fac403b66cb7a1a5eeb8250a020d4ccfbffbc9b95aaa28a29f177d4ae4860001b611e80565b610ce17f4ae7b597eadd10feb70653a3484c23843a12eb7f01e36beafe398975f3f29ccb60001b611e80565b600183610cee91906134d4565b9250610d22565b610d217f0b22dfa8ed378d1af717adab26f7aa2bc73baff8e025688b6eaae8ac770cd59160001b611e80565b5b8080610d2d906135f8565b915050610b87565b50610d627f189be2d3c748f1e71f49c798c7798f449032e202e25511c604faeb848f2d4ad660001b611e80565b610d8e7f4be076191f815e261d00bdbb32904d46b3226ed0722516d89b7e4f6b591008ad60001b611e80565b60008267ffffffffffffffff811115610dd0577f4e487b7100000000000000000000000000000000000000000000000000000000600052604160045260246000fd5b604051908082528060200260200182016040528015610e0957816020015b610df6612f32565b815260200190600190039081610dee5790505b509050610e387fd1ea4276e5fef218a8645891f5c6acba8ca8a778d923f023fffa0b05129faaa960001b611e80565b610e647fd85b9e021f24b5f667d13fcb4f703e7c1eb2269a584c590b685622e649f9736060001b611e80565b60005b848110156112d257610e9b7fffde3f15c8f3bc124c723d00a6dcf578533d9aa55af9fcdd8945f8ee5497fddd60001b611e80565b610ec77f08ce9cf1afe8fd143ee27b66917910ad77ca2fdfe8d5b40ddda0a2267150489260001b611e80565b3373ffffffffffffffffffffffffffffffffffffffff1660056000600184610eef91906134d4565b815260200190815260200160002060040160009054906101000a900473ffffffffffffffffffffffffffffffffffffffff1673ffffffffffffffffffffffffffffffffffffffff16141561129257610f697f6bef5e46f36cc74d7c27607e094375ad79f97303fb15d9d9701b15cb69880f9760001b611e80565b610f957f645bb76834e9250c43a03d931afca971f19b6806c71a184f01518d6de61cd99060001b611e80565b610fc17f7c72722b20fd1b8a785b42fab9dc0a0e56efe37ab96ad1d8948950f75d99b1fc60001b611e80565b6000600182610fd091906134d4565b9050610ffe7f5013eaac291469f1236039ad7bc4ea05e0450ed9d46e9ce99760ed0e0f250ca760001b611e80565b61102a7f7dc6515aba34793128cbb67f614dabd4ee3d8e1d889e008e66dea8680a1b476d60001b611e80565b600060056000838152602001908152602001600020905061106d7fc399d98e72d2a6cff5e00e5383e9328407b4b8cd162acbbac9b9ecd65153905a60001b611e80565b6110997f5261f34af5615958db9d9ec32850199b50ba7400caa4f149def83d9c18dd6d6b60001b611e80565b806040518060e0016040529081600082015481526020016001820160009054906101000a900473ffffffffffffffffffffffffffffffffffffffff1673ffffffffffffffffffffffffffffffffffffffff1673ffffffffffffffffffffffffffffffffffffffff168152602001600282015481526020016003820160009054906101000a900473ffffffffffffffffffffffffffffffffffffffff1673ffffffffffffffffffffffffffffffffffffffff1673ffffffffffffffffffffffffffffffffffffffff1681526020016004820160009054906101000a900473ffffffffffffffffffffffffffffffffffffffff1673ffffffffffffffffffffffffffffffffffffffff1673ffffffffffffffffffffffffffffffffffffffff168152602001600582015481526020016006820160009054906101000a900460ff161515151581525050848681518110611219577f4e487b7100000000000000000000000000000000000000000000000000000000600052603260045260246000fd5b60200260200101819052506112507fddad61b961426ab00b29c6d572c6ab7b7a8f327c3b3cdbe1a09acef1ade17caf60001b611e80565b61127c7ff1af06d8eb0637f551a5962d84044ea6cf16fa8802c4bebf850b2d77b175971060001b611e80565b60018561128991906134d4565b945050506112bf565b6112be7f7dbb4c54fe270dc7258c693acd07cfe09fc11591fffca788e29f2c38dd7780a360001b611e80565b5b80806112ca906135f8565b915050610e67565b506112ff7f933516f4b14b2b95ffc46b254173076ee808b0665b9b23c4a8e231c576c1cb5860001b611e80565b61132b7fee6e15e1e65e3b98d2dfd700e768b47eaab8fb4d63ea7485b6f95b9d9564b17c60001b611e80565b8094505050505090565b6002600054141561137b576040517f08c379a00000000000000000000000000000000000000000000000000000000081526004016113729061342f565b60405180910390fd5b60026000819055506113af7fd956d9a3836785c06f16e90e6c3818d7d80757c1ece54b92e538689b04de980c60001b611e80565b6113db7f96b1d1c1e0528fc59f86cbd4e9c7378825944a47b0b4501bb0ee299290daa0f860001b611e80565b6114077f8e8cb47603f1583fcc9623b95e2638a8867c54f1946e374822bf2458f140a02f60001b611e80565b6114337f07ed77999a43e6bda85c17b8e89392b43d5af3468870709b6f626f8089e54c3460001b611e80565b60008111611476576040517f08c379a000000000000000000000000000000000000000000000000000000000815260040161146d9061344f565b60405180910390fd5b6114a27f49b62ad2592536ec03e1647a3a6fcb0c2c9069b068706b96a840298a478e4dcc60001b611e80565b6114ce7fab08af31fcaf34909c2b653f94d098dd9fad8110ef9f9287b70cefb3b13fe99360001b611e80565b6114fa7f71c35c7898fb426279bbf74aaf72f2ccc9d9d6a02a123366d3ff729c30ddbf0760001b611e80565b6115267f997ff1fa1522517599899dbe34413899b5e044a0794927d1ef6655fd4b55271560001b611e80565b600454341461156a576040517f08c379a00000000000000000000000000000000000000000000000000000000081526004016115619061340f565b60405180910390fd5b6115967fac1155ea462f5edd951e14314421758f33603948b89756b0b480ee9976c99d2860001b611e80565b6115c27f5c0ebf42c15994183066ec9a420bce8e71fbae743c3a4048cb1835fed0cacff660001b611e80565b6115ee7f9e2c8a049309d312e2d250db3f63eb8e01c2b11bc559bfae3064a10c61b2bb9560001b611e80565b6115f86001612f1c565b6116247fa3d425bb216f5e51f198d389b81a1b6b38bbf9a7951b9a937cc6104274784c3560001b611e80565b6116507f88a9849390d8e223dda5fcca9f60c37765505b995574d852d4e850b4fade1f1e60001b611e80565b600061165c6001612f0e565b905061168a7ff1a1ded17a0766c97324d54c825250450e4b9b9a106b30de38e557511a373a7760001b611e80565b6116b67f15ec120c608066cafc6ce421a9490f64c9f4b68dafde766bd453391607eebd7560001b611e80565b6040518060e001604052808281526020018573ffffffffffffffffffffffffffffffffffffffff1681526020018481526020013373ffffffffffffffffffffffffffffffffffffffff168152602001600073ffffffffffffffffffffffffffffffffffffffff16815260200183815260200160001515815250600560008381526020019081526020016000206000820151816000015560208201518160010160006101000a81548173ffffffffffffffffffffffffffffffffffffffff021916908373ffffffffffffffffffffffffffffffffffffffff1602179055506040820151816002015560608201518160030160006101000a81548173ffffffffffffffffffffffffffffffffffffffff021916908373ffffffffffffffffffffffffffffffffffffffff16021790555060808201518160040160006101000a81548173ffffffffffffffffffffffffffffffffffffffff021916908373ffffffffffffffffffffffffffffffffffffffff16021790555060a0820151816005015560c08201518160060160006101000a81548160ff0219169083151502179055509050506118847f6ebfdc6da35680f047111f7dfba429bfac1b8bf78f4c0d4da0dabe240f81369660001b611e80565b6118b07f7888af03a97db5619c3037ef8722b64750827a826463e2dff7777b0b9fe1494360001b611e80565b8373ffffffffffffffffffffffffffffffffffffffff166323b872dd3330866040518463ffffffff1660e01b81526004016118ed93929190613331565b600060405180830381600087803b15801561190757600080fd5b505af115801561191b573d6000803e3d6000fd5b5050505061194b7fe7b5e2122618a33712a113883edfe9ab34be1c33e0f9f3bd5973c68421bba4f360001b611e80565b6119777f50fbfa6db75cf0535ece374f386a4a737b48ca4fa308b00a0dcea948b35887c860001b611e80565b828473ffffffffffffffffffffffffffffffffffffffff16827fdf6d79fb20cb7574ace70681b84c09fb90df06a5855a70b7d6b582d42451bfef3360008760006040516119c79493929190613368565b60405180910390a4506001600081905550505050565b6000611a0b7f88a48bf4b20769ff9178868a9cb70cb15c9b7fa66ef0fc05f201252af0cdc27d60001b611e80565b611a377f1037e6c2c885cf7cdd0787ceb5bff5115008af0d4e0f4709160923c39bd9f80560001b611e80565b611a637f6d1907fca65bf7a5948d968fac2085787ce420d107e472930c8ad8a47345d89460001b611e80565b611a8f7f9369ddd6bf7c7624df7783788184b704956d5a10a8e0d4fc7f31f2eab33e793860001b611e80565b600360009054906101000a900473ffffffffffffffffffffffffffffffffffffffff1673ffffffffffffffffffffffffffffffffffffffff163373ffffffffffffffffffffffffffffffffffffffff1614611b1f576040517f08c379a0000000000000000000000000000000000000000000000000000000008152600401611b16906133cf565b60405180910390fd5b611b4b7f3f92e0813270309303756c09a3b8656ca39acdeced88c722526cebc205159f9f60001b611e80565b611b777fc6cde2e611c13d9f804d2aa8ed73d4974f65618538a84db1cd1ffbbb9abffc6b60001b611e80565b611ba37f8824ec580b826a4cc083598a6907679b8d64aef28c336604ed0cb16f4b86cc2060001b611e80565b611bcf7ff2c810b60efce6d145d78658d650fabd64cdbf54dea2fa5a0a947c391cbd4cdb60001b611e80565b611bfb7f28add9dcd94b234e1693330eb979e7987665fcf0cea5084bee01869c7be251bb60001b611e80565b600360009054906101000a900473ffffffffffffffffffffffffffffffffffffffff1673ffffffffffffffffffffffffffffffffffffffff1631905090565b6000611c687f88a48bf4b20769ff9178868a9cb70cb15c9b7fa66ef0fc05f201252af0cdc27d60001b611e80565b611c947f1037e6c2c885cf7cdd0787ceb5bff5115008af0d4e0f4709160923c39bd9f80560001b611e80565b611cc07f6d1907fca65bf7a5948d968fac2085787ce420d107e472930c8ad8a47345d89460001b611e80565b611cec7f9369ddd6bf7c7624df7783788184b704956d5a10a8e0d4fc7f31f2eab33e793860001b611e80565b600360009054906101000a900473ffffffffffffffffffffffffffffffffffffffff1673ffffffffffffffffffffffffffffffffffffffff163373ffffffffffffffffffffffffffffffffffffffff1614611d7c576040517f08c379a0000000000000000000000000000000000000000000000000000000008152600401611d73906133cf565b60405180910390fd5b611da87f3f92e0813270309303756c09a3b8656ca39acdeced88c722526cebc205159f9f60001b611e80565b611dd47fc6cde2e611c13d9f804d2aa8ed73d4974f65618538a84db1cd1ffbbb9abffc6b60001b611e80565b611e007fa1cd6024b03c10037b82a6d29bc8334413c1c35ecc739cdd575e722a956ec74960001b611e80565b611e2c7f5922bc563e1d87134a5074ff2f673bf561a5b40a99f81afe3128208e5bd4172760001b611e80565b611e587f76a8a91a319f48e7dcf7fa628e07eba6e5edfc25fbc5437ed85be81af7b4fbc060001b611e80565b600360009054906101000a900473ffffffffffffffffffffffffffffffffffffffff16905090565b50565b60026000541415611ec9576040517f08c379a0000000000000000000000000000000000000000000000000000000008152600401611ec09061342f565b60405180910390fd5b6002600081905550611efd7fdbad8b2888cb055b78dfea30c6db6345c2dfe9f18739b37423dc7a1b2d4e24c160001b611e80565b611f297fd00a4ef4afd1d4c4ca8cb3d31746ae7f14cdd8310a9f84799b523b78e29dac3c60001b611e80565b611f557f0135064e2df8ae67ce43e193a3b2ce470a99c993dffffcaeae8c40ef1f0430ea60001b611e80565b600060056000838152602001908152602001600020600501549050611f9c7f939d339b1f83bd7d2ac3d82d6d59b64d92ef2004df60e61caae2e9e299f1bfcc60001b611e80565b611fc87f66211f031caca4f1ead0c2e52fe271295e35150598ff3ffa1467320fc3924ffb60001b611e80565b60006005600084815260200190815260200160002060020154905061200f7fa7f9560c7d1015257cc16eedc3a13af3a11b64926eabf3f24e2b36c8b594b8f860001b611e80565b61203b7f9fb2d499a70d298130b6039b9cb82f250a04a157199d9ece0583a58b7b6ca54b60001b611e80565b6120677faf0273b85c2e165f0f487247570ecb3e50d94a9ad00566e08007c788d64fbfd360001b611e80565b8134146120a9576040517f08c379a00000000000000000000000000000000000000000000000000000000081526004016120a0906133ef565b60405180910390fd5b6120d57fbf5a5ed07599c39725f58517ea667cc6b3dc59b854b30f9dc67b17f338a850c460001b611e80565b6121017fc8531a89e3404f76054c7c414f80cb3115b95d1d7de3e870cc625ba893c3711560001b611e80565b61212d7ff5304359868eb09bb1d59580a859123c174470e60576d86c22e1e96d1429868860001b611e80565b6005600084815260200190815260200160002060030160009054906101000a900473ffffffffffffffffffffffffffffffffffffffff1673ffffffffffffffffffffffffffffffffffffffff166108fc349081150290604051600060405180830381858888f193505050501580156121a9573d6000803e3d6000fd5b506121d67f4089c67eb704e91f3df307c6ab674787d9dd00a4bf3919885c7880226897bab960001b611e80565b6122027fee948f7ea14346df860c7ba19169a5ff58a4a679ec0c4823a14386161a0c463560001b611e80565b8373ffffffffffffffffffffffffffffffffffffffff166323b872dd3033846040518463ffffffff1660e01b815260040161223f93929190613331565b600060405180830381600087803b15801561225957600080fd5b505af115801561226d573d6000803e3d6000fd5b5050505061229d7f08fbe872f6876c95e0a980dd917b2839c18ab98f5ac28e950667442b32ba42ad60001b611e80565b6122c97f532ff028477348e303aac5fb8385a4df118bc91f1685c1aec97f5970b043f16c60001b611e80565b336005600085815260200190815260200160002060040160006101000a81548173ffffffffffffffffffffffffffffffffffffffff021916908373ffffffffffffffffffffffffffffffffffffffff16021790555061234a7f51e0af38447328c49e1d90554ee8409952ffba9e033d318456e2ad082d91f30e60001b611e80565b6123767fc6e35806dc932853b8f662d6d010aa284f66b87f5ba2e24c242491cf8802de7260001b611e80565b60016005600085815260200190815260200160002060060160006101000a81548160ff0219169083151502179055506123d17f1f3a8835e83745e70c8755efba93889af5be25da769a85503574a59ccab8e09960001b611e80565b6123fd7f18c4bbfe2bde1e7d5b406487f274970c0a6d9038fdec8591e62de47e9192348260001b611e80565b6124076002612f1c565b6124337f21c63377e41409f1c358a91d58bb40348c6b38932a020a66e23320c7f2f5ce4f60001b611e80565b61245f7fa4f5ec85bd81a74574a31d5804e089237cbbadae0d1031a9787702dd322fe3d360001b611e80565b600360009054906101000a900473ffffffffffffffffffffffffffffffffffffffff1673ffffffffffffffffffffffffffffffffffffffff166108fc6004549081150290604051600060405180830381858888f193505050501580156124c9573d6000803e3d6000fd5b506124f67fe4faa2c8e37abf70123962f233da475462db19a95635d9f363dd365115136c8560001b611e80565b6125227fd4c8d1e8ecf2b182ee09fe9f637c88f59b457a912cc3947d1e49e96ca40d108c60001b611e80565b808473ffffffffffffffffffffffffffffffffffffffff16847fdf6d79fb20cb7574ace70681b84c09fb90df06a5855a70b7d6b582d42451bfef6005600088815260200190815260200160002060030160009054906101000a900473ffffffffffffffffffffffffffffffffffffffff16338760016040516125a794939291906132ec565b60405180910390a4505060016000819055505050565b60606125eb7fedda1aab34c2568b7de3d16c1dd61b38695d9680bb26c02ba84539c6b37d3df460001b611e80565b6126177f170b983ebf6f3fa7e50b5536c42e5ea0a22530403d5890ebce652b9cbf453a3b60001b611e80565b6126437f3f5bf4158b446c4c32cf8536eec9b8a34e1d26be6dfcc37e337d0349d96245ee60001b611e80565b600061264f6001612f0e565b905061267d7f5783616f606c048f014ee3d4efa0c995716abc4c52c0ecf655e1de95ed1596fd60001b611e80565b6126a97fc82d39fc95e324f4125fb698ec8cc3411499e29eefc91debe1ecc85c3dfc414b60001b611e80565b60006126d77f7a4be35239413a282a1952219857ae9ae61ba20a746f95a73d0c37f3d523c87c60001b611e80565b6127037f79fea552d6077c6c18468559770446486f383c46ff02209bf8c826f4b58020ab60001b611e80565b60006127317f88e4734a5f4e964eeccb20048fd8ce888064aee4e1fbdfa82af3de8552383ad560001b611e80565b61275d7f671b170ca868ab007d7b1f21f9efddfb50122485d89a2226005c4fec0ec6620060001b611e80565b60005b8381101561290e576127947fe95a0ba3aab31a67d8c4617c3ba29867353808441a508131755999761eb0400c60001b611e80565b6127c07fb04f1a5047df7c2aa6bc29b6e3b2b0813ca6720773f7358672e2582bb5379afb60001b611e80565b3373ffffffffffffffffffffffffffffffffffffffff16600560006001846127e891906134d4565b815260200190815260200160002060030160009054906101000a900473ffffffffffffffffffffffffffffffffffffffff1673ffffffffffffffffffffffffffffffffffffffff1614156128ce576128627ff86587ce12755f8a9fe761a0a1a97d0078bbc43a46c184c61ec5e011327b469560001b611e80565b61288e7f6152c4c0a0fa97094bbdc82106c71b45f5349074f99a3eb15bd3de0caad0e0a360001b611e80565b6128ba7f87e321b30bf692008c41c775eeefbb6658cdd8216bb0f107ec2a548e230e2def60001b611e80565b6001836128c791906134d4565b92506128fb565b6128fa7f04036bdde12270227707057d5f059a114232809a9cb35dbe3aa68b66f32424c160001b611e80565b5b8080612906906135f8565b915050612760565b5061293b7f40f3886b3b311b8ba861d16f377428474c790e593f27f0744d22a077c6c6438e60001b611e80565b6129677f02e75839c2b4bd362f5177975ecb0fadbe167096aef2d7f093ccd1cabb1533b060001b611e80565b60008267ffffffffffffffff8111156129a9577f4e487b7100000000000000000000000000000000000000000000000000000000600052604160045260246000fd5b6040519080825280602002602001820160405280156129e257816020015b6129cf612f32565b8152602001906001900390816129c75790505b509050612a117fabaa2023452f5b7424e61211cf9133938386c0c065a2fc390ff4a5be08adcbaa60001b611e80565b612a3d7f98cc96ead5ff58e3b33d41d83c87ca4d52ccbd352f1c67a0fa0cf8bd8a1f9e3060001b611e80565b60005b84811015612eab57612a747f6795abf71008a0f9acb79fdc6b2967c37537dfea39fb75740ddbf9b08670e76860001b611e80565b612aa07f3329cecf18bfa3caab977d969598a64c36a4f6986c67f98a0ad6f073e3c43b8760001b611e80565b3373ffffffffffffffffffffffffffffffffffffffff1660056000600184612ac891906134d4565b815260200190815260200160002060030160009054906101000a900473ffffffffffffffffffffffffffffffffffffffff1673ffffffffffffffffffffffffffffffffffffffff161415612e6b57612b427fc7835f21cfeaec605e0ed71e2e41a60c15b29d3ddfcc966949bb7f5c8e7c889560001b611e80565b612b6e7f2c187684f33887389e1cede56b6c07f93172c8b3b939ace0f6530a81fc8b396160001b611e80565b612b9a7f759235570e6d86ff108dbcff13963fa936ad23881ef3bb78673d386ee228900260001b611e80565b6000600182612ba991906134d4565b9050612bd77fc6708087d752d59461c3d4bd016682e84ac7d3c53cb74d0bc1ce6dc15f7cfe9660001b611e80565b612c037ffed76c74554ad46af534006a0c6c152d56114c54aa2718773b7ebe56bb553c7f60001b611e80565b6000600560008381526020019081526020016000209050612c467f89b1babbb4ddeb3bfdb18799056641d9a7cba8eb98127200a50453b3428404fd60001b611e80565b612c727f1325ea44e3fbe58da250a57ae9f0aacda5d6a822aeeede1b5cf2a95b53f5a4ee60001b611e80565b806040518060e0016040529081600082015481526020016001820160009054906101000a900473ffffffffffffffffffffffffffffffffffffffff1673ffffffffffffffffffffffffffffffffffffffff1673ffffffffffffffffffffffffffffffffffffffff168152602001600282015481526020016003820160009054906101000a900473ffffffffffffffffffffffffffffffffffffffff1673ffffffffffffffffffffffffffffffffffffffff1673ffffffffffffffffffffffffffffffffffffffff1681526020016004820160009054906101000a900473ffffffffffffffffffffffffffffffffffffffff1673ffffffffffffffffffffffffffffffffffffffff1673ffffffffffffffffffffffffffffffffffffffff168152602001600582015481526020016006820160009054906101000a900460ff161515151581525050848681518110612df2577f4e487b7100000000000000000000000000000000000000000000000000000000600052603260045260246000fd5b6020026020010181905250612e297f2429a2487b8fec8fc112ed867566a927bbcf24d814bce473ca55c524873b5fe760001b611e80565b612e557f6d9528ab4dbd48a161437945fab11548a988f6d663bee8930e1e24db4d70eb5960001b611e80565b600185612e6291906134d4565b94505050612e98565b612e977fa53d4af6b6a0999525a6d83569b28abf4ac1b5fbb180500648d72fc8a1d4285f60001b611e80565b5b8080612ea3906135f8565b915050612a40565b50612ed87f95b4f7c520ddb03a5e1fbd0f5a102c1d1ad9cc512f726135116f2620bab1589460001b611e80565b612f047f7b49a595d1a77c7511c4a212398d7b96abb816dd5263be900ea971ea8059c32c60001b611e80565b8094505050505090565b600081600001549050919050565b6001816000016000828254019250508190555050565b6040518060e0016040528060008152602001600073ffffffffffffffffffffffffffffffffffffffff16815260200160008152602001600073ffffffffffffffffffffffffffffffffffffffff168152602001600073ffffffffffffffffffffffffffffffffffffffff168152602001600081526020016000151581525090565b600081359050612fc281613789565b92915050565b600081359050612fd7816137a0565b92915050565b600081359050612fec816137b7565b92915050565b6000806040838503121561300557600080fd5b600061301385828601612fb3565b925050602061302485828601612fdd565b9150509250929050565b60008060006060848603121561304357600080fd5b600061305186828701612fb3565b935050602061306286828701612fdd565b925050604061307386828701612fdd565b9150509250925092565b60006020828403121561308f57600080fd5b600061309d84828501612fc8565b91505092915050565b60006130b28383613225565b60e08301905092915050565b6130c7816135c2565b82525050565b6130d681613570565b82525050565b6130e58161355e565b82525050565b6130f48161355e565b82525050565b60006131058261349a565b61310f81856134b2565b935061311a8361348a565b8060005b8381101561314b57815161313288826130a6565b975061313d836134a5565b92505060018101905061311e565b5085935050505092915050565b61316181613582565b82525050565b61317081613582565b82525050565b6000613183601a836134c3565b915061318e82613670565b602082019050919050565b60006131a66040836134c3565b91506131b182613699565b604082019050919050565b60006131c96024836134c3565b91506131d4826136e8565b604082019050919050565b60006131ec601f836134c3565b91506131f782613737565b602082019050919050565b600061320f601c836134c3565b915061321a82613760565b602082019050919050565b60e08201600082015161323b60008501826132b3565b50602082015161324e60208501826130dc565b50604082015161326160408501826132b3565b50606082015161327460608501826130cd565b50608082015161328760808501826130cd565b5060a082015161329a60a08501826132b3565b5060c08201516132ad60c0850182613158565b50505050565b6132bc816135b8565b82525050565b6132cb816135b8565b82525050565b60006020820190506132e660008301846130eb565b92915050565b600060808201905061330160008301876130be565b61330e60208301866130eb565b61331b60408301856132c2565b6133286060830184613167565b95945050505050565b600060608201905061334660008301866130eb565b61335360208301856130eb565b61336060408301846132c2565b949350505050565b600060808201905061337d60008301876130eb565b61338a60208301866130eb565b61339760408301856132c2565b6133a46060830184613167565b95945050505050565b600060208201905081810360008301526133c781846130fa565b905092915050565b600060208201905081810360008301526133e881613176565b9050919050565b6000602082019050818103600083015261340881613199565b9050919050565b60006020820190508181036000830152613428816131bc565b9050919050565b60006020820190508181036000830152613448816131df565b9050919050565b6000602082019050818103600083015261346881613202565b9050919050565b600060208201905061348460008301846132c2565b92915050565b6000819050602082019050919050565b600081519050919050565b6000602082019050919050565b600082825260208201905092915050565b600082825260208201905092915050565b60006134df826135b8565b91506134ea836135b8565b9250827fffffffffffffffffffffffffffffffffffffffffffffffffffffffffffffffff0382111561351f5761351e613641565b5b828201905092915050565b6000613535826135b8565b9150613540836135b8565b92508282101561355357613552613641565b5b828203905092915050565b600061356982613598565b9050919050565b600061357b82613598565b9050919050565b60008115159050919050565b6000819050919050565b600073ffffffffffffffffffffffffffffffffffffffff82169050919050565b6000819050919050565b60006135cd826135d4565b9050919050565b60006135df826135e6565b9050919050565b60006135f182613598565b9050919050565b6000613603826135b8565b91507fffffffffffffffffffffffffffffffffffffffffffffffffffffffffffffffff82141561363657613635613641565b5b600182019050919050565b7f4e487b7100000000000000000000000000000000000000000000000000000000600052601160045260246000fd5b7f4f6e6c7920746865206f776e65722063616e20646f2074686973000000000000600082015250565b7f506c65617365207375626d6974207468652061736b696e67207072696365206960008201527f6e206f7264657220746f20636f6d706c65746520746865207075726368617365602082015250565b7f5072696365206d75737420626520657175616c20746f206c697374696e67207060008201527f7269636500000000000000000000000000000000000000000000000000000000602082015250565b7f5265656e7472616e637947756172643a207265656e7472616e742063616c6c00600082015250565b7f5072696365206d757374206265206174206c6561737420312077656900000000600082015250565b6137928161355e565b811461379d57600080fd5b50565b6137a98161358e565b81146137b457600080fd5b50565b6137c0816135b8565b81146137cb57600080fd5b5056fea2646970667358221220f6574025d29c3145810ae19c249dd4620fd9d6fcf0c126a948e753a28a82c60564736f6c63430008040033",
  "linkReferences": {},
  "deployedLinkReferences": {}
}